:020000040800F2
:100000000010002039180008150900081709000819
:1000100000000000000000000000000000000000E0
:1000200000000000000000000000000019090008A6
:1000300000000000000000001B0900081D09000866
:1000400089180008000000008918000889180008B5
:1000500089180008891800088918000889180008FC
:100060000000000089180008891800088918000895
:100070008918000889180008891800080000000085
:10008000891800080000000000000000891800081E
:100090000000000089180008891800088918000865
:1000A0000000000089180008000000000D0F000883
:1000B0000000000000000000000000000000000040
:1000C00010B5064C2378002B07D1054B002B02D02E
:1000D000044800E000BF0123237010BD2C00002065
:1000E000000000008C180008044B10B5002B03D052
:1000F0000349044800E000BF10BDC04600000000F6
:10010000300000208C180008002243088B4274D372
:1001100003098B425FD3030A8B4244D3030B8B4208
:1001200028D3030C8B420DD3FF22090212BA030C11
:100130008B4202D31212090265D0030B8B4219D3F2
:1001400000E0090AC30B8B4201D3CB03C01A524112
:10015000830B8B4201D38B03C01A5241430B8B425A
:1001600001D34B03C01A5241030B8B4201D30B0343
:10017000C01A5241C30A8B4201D3CB02C01A52416A
:10018000830A8B4201D38B02C01A5241430A8B422D
:1001900001D34B02C01A5241030A8B4201D30B0216
:1001A000C01A5241CDD2C3098B4201D3CB01C01A30
:1001B000524183098B4201D38B01C01A524143093A
:1001C0008B4201D34B01C01A524103098B4201D328
:1001D0000B01C01A5241C3088B4201D3CB00C01A95
:1001E000524183088B4201D38B00C01A524143080D
:1001F0008B4201D34B00C01A5241411A00D2014632
:10020000524110467047FFE701B5002000F0F0F8BA
:1002100002BDC0460029F7D076E7704703460B437E
:100220007FD4002243088B4274D303098B425FD3EF
:10023000030A8B4244D3030B8B4228D3030C8B421B
:100240000DD3FF22090212BA030C8B4202D3121201
:10025000090265D0030B8B4219D300E0090AC30BD6
:100260008B4201D3CB03C01A5241830B8B4201D383
:100270008B03C01A5241430B8B4201D34B03C01A6C
:100280005241030B8B4201D30B03C01A5241C30AE4
:100290008B4201D3CB02C01A5241830A8B4201D355
:1002A0008B02C01A5241430A8B4201D34B02C01A3F
:1002B0005241030A8B4201D30B02C01A5241CDD2E4
:1002C000C3098B4201D3CB01C01A524183098B422F
:1002D00001D38B01C01A524143098B4201D34B0118
:1002E000C01A524103098B4201D30B01C01A52417B
:1002F000C3088B4201D3CB00C01A524183088B4202
:1003000001D38B00C01A524143088B4201D34B00EA
:10031000C01A5241411A00D201465241104670475C
:100320005DE0CA0F00D04942031000D34042534061
:1003300000229C4603098B422DD3030A8B4212D321
:10034000FC22890112BA030A8B420CD38901921153
:100350008B4208D3890192118B4204D389013AD090
:10036000921100E08909C3098B4201D3CB01C01A65
:10037000524183098B4201D38B01C01A5241430978
:100380008B4201D34B01C01A524103098B4201D366
:100390000B01C01A5241C3088B4201D3CB00C01AD3
:1003A000524183088B4201D38B00C01A5241D9D2EB
:1003B00043088B4201D34B00C01A5241411A00D26C
:1003C0000146634652415B10104601D34042002B68
:1003D00000D54942704763465B1000D3404201B5E7
:1003E000002000F005F802BD0029F8D016E770479C
:1003F0007047C04670B500260C4D0D4C641BA41010
:10040000A64209D1002601F041FA0A4D0A4C641BAC
:10041000A410A64205D170BDB300EB589847013631
:10042000EEE7B300EB5898470136F2E7F018000802
:10043000F0180008F0180008F418000803008218EB
:10044000934200D1704719700133F9E70D4B1B68D7
:10045000002B08D00B4A5168481C506009789068FE
:100460000185013B1360074B1B68002B09D1054B2D
:1004700099680A68802082430A60034ADA60034A66
:100480001A617047480000209104000849060008DE
:10049000094B9A68197D11851B68002B03D0064B08
:1004A000064ADA607047136880218B431360024B61
:1004B000034A1A61F6E7C046480000204D040008D0
:1004C00049060008F8B50F0011001C4B9F601C4A3C
:1004D0009A611C4ADA601C4ADA611C4A1A610024DB
:1004E0001C625C62187528229C54DC6208329C54A1
:1004F0001C60002308E0164C1D0166190020B06046
:10050000F06028510133DBB20E2BF4D93B68012493
:10051000A3433B600F4B3B6080239B017B60002526
:10052000BD6048080C4B9C466044FFF7EDFDF86049
:100530003D613B6823433B600020F8BD480000203C
:10054000B90500084D0400089105000819060008C7
:10055000980000203C170000006CDC0230B50F282A
:100560000AD8064C0001039D0551201841608260A5
:100570000233C360002030BD0120FCE7980000205A
:10058000024B0022DA6298617047C04648000020A2
:1005900010B5064B9A69064B9A4203D00548FFF7FF
:1005A000EFFF10BD1800FFF7EBFFFAE7480000204F
:1005B000F9050008B905000810B50C4B5B6BDB07AB
:1005C00005D40A4B28229A5C1B7D9A420AD0074B1D
:1005D0009A68116880239B010B4313600448FFF75E
:1005E000CFFF10BD014B034A9A61FAE74800002093
:1005F000B90500080107000810B5054B9A68116895
:1006000080239B010B4313600248FFF7B9FF10BD25
:1006100048000020F905000810B50848FFF7B0FFB2
:10062000074B084ADA6099680A68402082430A60EA
:100630009A68136880218B43136010BDB9050008C8
:10064000480000209104000810B50748FFF798FF04
:10065000064B074A1A61074ADA609A681368402114
:100660008B43136010BDC046B90500084800002048
:10067000190600089104000810B51B4B5B6BDB07E3
:1006800010D4194BD96A8A1E9A1828201C5C103085
:10069000145430229A5C1201144B9B18DB68994267
:1006A0000BD210BD104B9A68116880239B010B433D
:1006B00013600F48FFF764FFF3E70B4C0D4BE3604B
:1006C0000D4B23610D48FFF75BFFA2681368802183
:1006D0000B431360A268136840390B431360236A0D
:1006E00001332362DDE7C046480000209800002067
:1006F000B90500089104000849060008F90500083A
:1007000010B5264B5B6BDB070AD4244A2823D35C45
:100710000E2B05D81901224A5218D268002A0AD194
:100720001E4B9A68116880239B010B4313601D4880
:10073000FFF726FF10BD194930200B5408300B5429
:10074000C96A8A4203D0154B174A9A61F2E7134AE5
:100750001649D160164991611901114A52189268DF
:10076000002A17D00D490A601B010D4AD3185B6897
:100770004B60104B0B61094B99680A68802002435B
:100780000A6099680A68403802430A601A6A0132AE
:100790001A62CFE7014B084A1A61ECE748000020D3
:1007A00098000020B90500087906000891040008A7
:1007B000F9050008190600084906000810B572B6C8
:1007C0001C498B68DA694A631A621B681340DB06AE
:1007D00007D50C00CB699847A268136810218B439A
:1007E00013602823134A526B1A420ED0114CA3688F
:1007F0009A8C2823E254E36A0133E362A3699847A1
:10080000A268136810210B4313600A4A93681968A1
:10081000536B0B401B0601D5D3689847054A936874
:100820001968536B0B405B0601D51369984762B694
:1008300010BDC0464800002010B5094B1A6A5B6A1B
:1008400093420BD0064B5A6238229B5C0F2B05D883
:100850001B01044A9B58002B00D0984710BDC0468E
:10086000480000209800002006484378817809025B
:100870001943C2781204114303791B060B43024A41
:1008800013607047800000208801002010B50948DF
:10089000427883781B021343C17809040B43027921
:1008A00012061A43044842600168083000F0E2FA78
:1008B00010BDC046800000208801002010B5084807
:1008C000417883781B020B43C278120413430179E9
:1008D000090619430348083000F0C0FA10BDC046AD
:1008E000800000208801002010B5084841788378F6
:1008F0001B020B43C2781204134301790906194302
:100900000348083000F0B4FA10BDC0468000002053
:1009100088010020FEE7FEE7FEE7FEE710B500F0E5
:10092000EDFA10BD00B591B03022002104A8FFF708
:1009300085FD102200216846FFF780FD0223049305
:10094000012207920F3208920C93A0239B030E936F
:1009500004A800F04FFC002802D0012011B000BD17
:1009600007230093053B0193002302930393012186
:10097000684600F0C5FE0028F0D00220EEE7000037
:1009800010B586B003AB234A03CA03C3190013781A
:100990000B7000F001FBFFF7C5FF00F0BBFAFA2275
:1009A000FA211D4C200008301C4B00936423520098
:1009B000890000F02DFA1A4B009304230022002135
:1009C0000020FFF7CBFD174B0093042300220021EA
:1009D0000120FFF7C3FD144B0093042300220021E4
:1009E0000220FFF7BBFD114B0093042300220021DE
:1009F0000320FFF7B3FD21004131002300930122C2
:100A00000420FFF7ABFD0448083000F049FAFFF777
:100A100013FFF8E7BC1800088801002040420F00CF
:100A2000690800088D080008BD080008E9080008EA
:100A300010B5040000F05CFA2368C01A636898429D
:100A400001D36369236110BD030080681B69C01A6C
:100A5000431E9841C0B2704770B5040008001500ED
:100A6000002901D1226170BD0A21FFF74DFB6060B2
:100A7000034B2361656100F03BFA2060F3E7C04659
:100A8000310A000800238361C16083600161436112
:100A9000C26100207047000010B504000369C36004
:100AA000002B00D09847E368024A934200D0A3602D
:100AB000002010BD310A000870B50500C469382354
:100AC000E35C002B1FD02C23E356226A9446634438
:100AD0002362A36A002B03D1A36A002B07D070BD49
:100AE000013BA3620A4A0021FFF7B6FFF4E700F0DA
:100AF000FFF9E063074A00212800FFF7ADFF392323
:100B00000222E254EBE7024A0021FFF7A5FFE6E7E5
:100B1000150D0008750D0008002805D09023DB0591
:100B20008022D2029A6170479023DB0504229A61E9
:100B3000F9E70000F0B5CE46474680B589B005001C
:100B40001422002103A8FFF779FC314BDA69022156
:100B500088460A43DA61DA690A400192019A5A69C1
:100B6000802189020A435A615B690B400293029B10
:100B7000284B1A680126B2431A6080221A600024AA
:100B80005C609C60DC601C61234A9A61DC6111221C
:100B90001A625C629C62214ADA62C82292005A633D
:100BA0009A63DC631C649C64DC641A6832431A60D8
:100BB0005E619027FF057B69DF2293437B611F23E2
:100BC0000393049605941C3B9946069303A93800A9
:100BD00000F04AFAC02303934346049305944B461E
:100BE0000693079603A9380000F03EFAAC640C4B5C
:100BF000EB6410332B6554230822EA520020FFF7E0
:100C00008BFF002009B0C0BCB946B046F0BDC0465D
:100C100000100240000400406C6C00003F06000021
:100C20000000002072B6002917D19023DB05C020F8
:100C300080029861002A1CD19023DB05C02040036C
:100C40009861CB17C9185940104B5963D1175218E6
:100C50004A409A6362B600207047002904DD902361
:100C6000DB050B489861E5E79023DB0509489861AF
:100C7000E0E7002A04DD9023DB0507489861E0E700
:100C80009023DB0505489861DBE7C046000400407F
:100C9000020001000100020010000800080010001E
:100CA00010B54843FA218900FFF7B8FA10BDF8B52E
:100CB00004002C23C356826C9446634483645422FC
:100CC000825E934201DB00238364A36C002B1ADB5A
:100CD000A36C5D00E36C585F676B3900FFF7E0FFC2
:100CE0000600236D585F3900FFF7DAFF020031007C
:100CF0000020FFF797FFA36CDB0707D538230022FE
:100D0000E2540020F8BD013AA264E1E73823012251
:100D1000E254F6E770B50400C569FFF795FE0028B8
:100D200002D039230122EA542800FFF7C0FF4423F0
:100D3000E854696A024A2000FFF78EFE70BDC04683
:100D4000B90A0008F8B50400836C5D00C36C585FF5
:100D5000276B3900FFF7A4FF0600236D585F3900A9
:100D6000FFF79EFF020031000020FFF75BFF00202D
:100D7000F8BD000070B50400C56900F0B9F8EB6B70
:100D8000C01A2B6C984203D2AB6A002B0CD170BDF9
:100D90002800FFF7D7FF074A00212000FFF75CFE7D
:100DA00039230322EA54F2E7034A00212000FFF727
:100DB00053FEECE7ED0D0008150D0008F8B5040032
:100DC000836C5D00C36C585F676B3900FFF768FF89
:100DD0000600236D585F3900FFF762FF0200310003
:100DE0000020FFF71FFF0020F8BD000070B50400D1
:100DF000C569AB6A002B00D170BD2800FFF7DEFF8C
:100E0000696A024A2000FFF727FEF5E7150D000882
:100E100070B50400016200254562856485622C215D
:100E200045544263036322390498FFF76DF9206447
:100E30002000FFF77FFE4423E0540B3B0322E254E3
:100E40002000FFF77FFF3823E554220002492000ED
:100E5000FFF718FE032070BDED0D000810B54163CB
:100E60003923C35C032B00D010BDFFF76BFFFBE7FA
:100E70000163704770B504001500002908DB2C23BE
:100E80000122C2540548FFF7C9F96062A56270BD2E
:100E900049422C23FF22C254F4E7C04620A1070098
:100EA00010B5FFF7F9FD10BD10B50400F0204000AB
:100EB00000F0BEF800280DD1032C01D901200AE072
:100EC000013000222100404200F076F8024B1C6005
:100ED000002000E0012010BD2400002010B5034BCD
:100EE00018686421FFF710F910BDC046E801002022
:100EF000014B18687047C046E8010020024A136899
:100F0000013313607047C046E801002010B5FFF7B9
:100F100055FC10BD00B589B01C4A91698020C00104
:100F200001439161936903400193019BE1225202C5
:100F300017490120FFF7C6FA002802D0012009B0A6
:100F400000BD00220A211B3000F036F81B2000F003
:100F500063F80E4A51698020800201435161536950
:100F600003400293029BC023DB00039302230493FC
:100F70000023059303330693023B0793902003A9B4
:100F8000C00500F071F80020D9E7C046001002400B
:100F9000003801407047000010B5064A1368102160
:100FA0000B4313600020FFF77FFFFFF7F3FF0020E4
:100FB00010BDC0460020024070B5002811DB830838
:100FC000134EC0339B009D5903242040C000FF22D4
:100FD00014008440A54389010A4082402A439A5163
:100FE00070BD0F230340083B9B0806339B00094A52
:100FF000944663445C6803221040C000FC32150034
:101000008540AC4389010A40824022435A60E7E7A9
:1010100000E100E000ED00E0002805DB1F231840A0
:101020001E3B8340014A13607047C04600E100E068
:10103000013880235B0498420FD2094A5060094866
:10104000036A1B021B0AC02109060B43036200232B
:10105000936007331360002070470120FCE7C0460F
:1010600010E000E000ED00E0F0B583B0002357E0B1
:1010700084685F000326BE40B4432600CC68BC40B1
:1010800034438460446894434A681609012232401C
:101090009A402243426053E0DC080834A4002658FA
:1010A00005321A4092000F279740BE430F699740C0
:1010B0003A003243225057E0032600E00026A640C3
:1010C00034003C4302329200444E9451444A146826
:1010D000EA432600AE434F68FF0301D52C432600A8
:1010E0003F4C26606468260016404F68BF0301D558
:1010F0002C4326003A4C6660A468260016404F68D0
:10110000FF0201D52C432600354CA660E46822403E
:101110004E68B60201D52A002243314CE260013309
:101120000C682200DA4057D001229A402500154071
:101130001442F4D003244E683440013C012C97D96A
:1011400003224C682240032A09D0C2685E000324AF
:10115000B440A24314008A68B2402243C260032212
:101160004C682240022A97D004685E0003221700D0
:10117000B740BC434F683A40B24022430260C022AD
:1011800092024C681442CAD0164CA669012216433A
:10119000A661A46922400192019A9A08941CA400B5
:1011A0000E4EA75903241C40A4000F26A640B743A7
:1011B0009026F605B04281D00B4EB04208D00B4EBF
:1011C000B04207D00A4EB04200D175E7052676E757
:1011D000012674E7022672E703B0F0BD000001406B
:1011E00000040140001002400004004800080048CC
:1011F000000C004870B582B0041E00D12EE20368D6
:10120000DB0726D5AE4B5A680C231340042B18D0AD
:10121000AB4B5A680C231340082B0ED06368012B8C
:101220003CD0002B51D1A64B1A68A6490A401A603F
:101230001A68A5490A401A6036E0A14B5B68DB03D7
:10124000ECD59F4B1B689B0303D56368002B00D133
:1012500007E223689B0772D5994B5B680C221A4200
:101260005DD0974B5A680C231340082B53D0E3688A
:10127000002B00D185E0924A136801210B431360D3
:10128000FFF72CFE05008E4B1B689B0770D4FFF701
:1012900025FE401B0228F6D90320E0E1884A1168A8
:1012A00080235B020B4313606368002B25D0FFF79C
:1012B00015FE0500824B1B689B03CAD4FFF70EFE88
:1012C000401B6428F6D90320C9E1052B09D07C4BCB
:1012D0001A687C490A401A601A687B490A401A60F9
:1012E000E2E7774B19688022D2020A431A60196834
:1012F000802252020A431A60D6E7FFF7EFFD05008D
:101300006F4B1B689B03A4D5FFF7E8FD401B6428C7
:10131000F6D90320A3E16A4B5B68DB03A7D4684BD3
:101320001B689B0703D5E368012B00D09BE1644950
:101330000B68F82293432269D20013430B602368A1
:101340001B0744D5E369002B2ED05D4A536A012167
:101350000B435362FFF7C2FD0500594B5B6A9B07C5
:1013600035D4FFF7BBFD401B0228F6D9032076E1F8
:1013700053490B68F82293432269D20013430B6050
:10138000DDE74F4A136801218B431360FFF7A6FD89
:1013900005004B4B1B689B07D1D5FFF79FFD401BFA
:1013A0000228F6D903205AE1454A536A01218B43AA
:1013B0005362FFF793FD0500414B5B6A9B0706D51F
:1013C000FFF78CFD401B0228F6D9032047E1236874
:1013D0005B0700D480E03A4BDB69DB001DD4384A60
:1013E000D169802040050143D161D3690340019355
:1013F000019B0125354B1B68DB0510D5A368012B2C
:1014000021D0002B36D12E4B1A6A01218A431A6251
:101410001A6A03318A431A621AE00025EAE72B4A66
:10142000116880235B000B431360FFF757FD060034
:10143000264B1B68DB05E1D4FFF750FD801B6428B9
:10144000F6D903200BE11E4A136A01210B431362F4
:10145000A368002B24D0FFF741FD0600184B1B6A40
:101460009B0737D4FFF73AFD801B194B9842F5D9FB
:101470000320F4E0052B09D0114B1A6A01218A439D
:101480001A621A6A03318A431A62E1E70C4B1A6A3C
:1014900004210A431A621A6A03390A431A62D7E717
:1014A000FFF71CFD0600064B1B6A9B0712D5FFF7D2
:1014B00015FD801B064B9842F5D90320CFE0C046AE
:1014C00000100240FFFFFEFFFFFFFBFF0070004027
:1014D00088130000012D33D02368DB0610D5636923
:1014E000012B33D0053351D1654A536B04218B4313
:1014F0005363536BF4318B43A169C9000B435363AE
:10150000236A002B00D1B0E05D4A51680C220A40EA
:10151000082A00D18AE0022B4FD0594A1368594952
:101520000B401360FFF7DAFC0400554B1B689B016E
:101530007AD5FFF7D3FC001B0228F6D903208EE0F2
:101540004F4AD36950490B40D361C5E74C4B5A6BA6
:1015500004210A435A635A6B03390A435A63FFF75B
:10156000BDFC0500464B5B6B9B0706D4FFF7B6FC42
:10157000401B0228F6D9032071E041494B6BF82249
:101580009343A269D20013434B63B9E73C4B5A6BB8
:1015900004210A435A635A6B03398A435A63FFF79B
:1015A0009DFC0500364B5B6B9B07A9D5FFF796FCAE
:1015B000401B0228F6D9032051E0314A1368314913
:1015C0000B401360FFF78AFC05002D4B1B689B0145
:1015D00006D5FFF783FC401B0228F6D903203EE026
:1015E000274BDA6A0F218A43E16A0A43DA625A68B2
:1015F00026490A40A16A606A01430A435A60196891
:10160000802252040A431A60FFF768FC04001C4B56
:101610001B689B0106D4FFF761FC001B0228F6D96A
:1016200003201CE000201AE0002018E0012B1ED04F
:10163000134B5A68D96A80235B021340606A834265
:1016400017D10F230B40E16A8B4214D1F0239B0387
:101650001A40A36A9A4210D1002000E0012002B093
:1016600070BD0120FBE70120F9E70020F7E701202A
:10167000F5E70120F3E70120F1E70120EFE7C0469D
:1016800000100240FFFFFFFEFFFFFFEFFFFFC2FF62
:1016900010B588B004AA164B13CB13C21B68136095
:1016A0006A46144B13CB13C21B681360124B5A6863
:1016B0000C231340082B02D0104808B010BD910C29
:1016C0000733194004A8445C0B49C96A0B406946BA
:1016D000C95CD30304D50948FEF716FD6043ECE767
:1016E00063011B1B9801C01AC00000190002E4E747
:1016F000C8180008DC1800080010024000127A0028
:1017000070B504000D00002800D17EE0434B1A683C
:10171000012313408B420AD240490B6801229343B4
:101720002B430B600B681A40AA4200D06FE023687D
:101730009A070ED55B0705D5394A5168E023DB00CF
:101740000B435360364A5368F0218B43A1680B4327
:1017500053602368DB072DD56368012B1ED0022B55
:1017600022D02F4A1268920753D52D494A68032088
:10177000824313434B60FFF7B1FB0600284B5B68C5
:101780000C221A4063689B009A4213D0FFF7A6FB15
:10179000801B244B9842F1D9032035E0204A12687F
:1017A0009203E2D401202FE01D4A12689201DCD49A
:1017B000012029E0194B1A6801231340AB4209D9D3
:1017C00016490B68012293432B430B600B681A40A8
:1017D000AA4220D123685B0706D5114A53681249F3
:1017E0000B40E1680B435360FFF752FF0C4B5A6804
:1017F00012090F2313400D4AD35CD8400C4B1860DC
:101800000020FFF751FB002070BD0120FCE7012004
:10181000FAE70120F8E70120F6E7C0460020024081
:101820000010024088130000FFF8FFFFA418000812
:1018300028000020704700000D4885460D480E49DD
:101840000E4A002302E0D458C4500433C4188C421A
:10185000F9D30B4A0B4C002301E013600432A2427F
:10186000FBD3FFF7E7FFFEF7C5FDFFF789F8FEE7BB
:1018700000100020000000202C000020F8180008B4
:101880002C000020EC010020FEE70000F8B5C04667
:10189000F8BC08BC9E467047F8B5C046F8BC08BC0A
:0418A0009E467047A9
:1018A400000000000000000001020304060708090C
:1018B40000000000010203045465737431200D0A12
:1018C4000000000002030405060708090A0B0C0DBA
:1018D4000E0F1010000000000102030405060708A3
:0C18E400090A0B0C0D0E0F100000000094
:0418F000E900000803
:0418F400C100000827
:1018F80040060000C0F9C0F9C0F9000040064006E3
:101908004006400640060000C0F9C0F9C0F90000D2
:0C191800010000000400000000127A0032
:04000005080018399E
:00000001FF
